{"abi":[{"type":"constructor","inputs":[{"name":"_factory","type":"address","internalType":"address"}],"stateMutability":"nonpayable"},{"type":"function","name":"createPool","inputs":[{"name":"name","type":"string","internalType":"string"},{"name":"symbol","type":"string","internalType":"string"},{"name":"tokens","type":"address[]","internalType":"address[]"},{"name":"weights","type":"uint256[]","internalType":"uint256[]"},{"name":"swapFeePercentage","type":"uint256","internalType":"uint256"},{"name":"ownerFeePercentage","type":"uint256","internalType":"uint256"}],"outputs":[{"name":"","type":"address","internalType":"address"}],"stateMutability":"nonpayable"},{"type":"function","name":"factory","inputs":[],"outputs":[{"name":"","type":"address","internalType":"contract IWeightedPoolFactory"}],"stateMutability":"view"},{"type":"event","name":"PoolCreated","inputs":[{"name":"pool","type":"address","indexed":true,"internalType":"address"},{"name":"name","type":"string","indexed":false,"internalType":"string"},{"name":"symbol","type":"string","indexed":false,"internalType":"string"}],"anonymous":false}],"bytecode":{"object":"0x60a060405234801561000f575f5ffd5b50604051610ab5380380610ab5833981810160405281019061003191906100c9565b8073ffffffffffffffffffffffffffffffffffffffff1660808173ffffffffffffffffffffffffffffffffffffffff1681525050506100f4565b5f5ffd5b5f73ffffffffffffffffffffffffffffffffffffffff82169050919050565b5f6100988261006f565b9050919050565b6100a88161008e565b81146100b2575f5ffd5b50565b5f815190506100c38161009f565b92915050565b5f602082840312156100de576100dd61006b565b5b5f6100eb848285016100b5565b91505092915050565b6080516109a46101115f395f81816088015260ae01526109a45ff3fe608060405234801561000f575f5ffd5b5060043610610034575f3560e01c8063c45a015514610038578063cb3e65f814610056575b5f5ffd5b610040610086565b60405161004d9190610229565b60405180910390f35b610070600480360381019061006b9190610581565b6100aa565b60405161007d9190610689565b60405180910390f35b7f000000000000000000000000000000000000000000000000000000000000000081565b5f5f7f000000000000000000000000000000000000000000000000000000000000000073ffffffffffffffffffffffffffffffffffffffff1663b93c62ed8989898989896040518763ffffffff1660e01b815260040161010f9695949392919061087f565b6020604051808303815f875af115801561012b573d5f5f3e3d5ffd5b505050506040513d601f19601f8201168201806040525081019061014f919061090e565b90508073ffffffffffffffffffffffffffffffffffffffff167fd8a533ce25fe1206f7c9c04fdad48e7151340413c7ba069aeae253981183bd268989604051610199929190610939565b60405180910390a2809150509695505050505050565b5f73ffffffffffffffffffffffffffffffffffffffff82169050919050565b5f819050919050565b5f6101f16101ec6101e7846101af565b6101ce565b6101af565b9050919050565b5f610202826101d7565b9050919050565b5f610213826101f8565b9050919050565b61022381610209565b82525050565b5f60208201905061023c5f83018461021a565b92915050565b5f604051905090565b5f5ffd5b5f5ffd5b5f5ffd5b5f5ffd5b5f601f19601f8301169050919050565b7f4e487b71000000000000000000000000000000000000000000000000000000005f52604160045260245ffd5b6102a18261025b565b810181811067ffffffffffffffff821117156102c0576102bf61026b565b5b80604052505050565b5f6102d2610242565b90506102de8282610298565b919050565b5f67ffffffffffffffff8211156102fd576102fc61026b565b5b6103068261025b565b9050602081019050919050565b828183375f83830152505050565b5f61033361032e846102e3565b6102c9565b90508281526020810184848401111561034f5761034e610257565b5b61035a848285610313565b509392505050565b5f82601f83011261037657610375610253565b5b8135610386848260208601610321565b91505092915050565b5f67ffffffffffffffff8211156103a9576103a861026b565b5b602082029050602081019050919050565b5f5ffd5b5f6103c8826101af565b9050919050565b6103d8816103be565b81146103e2575f5ffd5b50565b5f813590506103f3816103cf565b92915050565b5f61040b6104068461038f565b6102c9565b9050808382526020820190506020840283018581111561042e5761042d6103ba565b5b835b81811015610457578061044388826103e5565b845260208401935050602081019050610430565b5050509392505050565b5f82601f83011261047557610474610253565b5b81356104858482602086016103f9565b91505092915050565b5f67ffffffffffffffff8211156104a8576104a761026b565b5b602082029050602081019050919050565b5f819050919050565b6104cb816104b9565b81146104d5575f5ffd5b50565b5f813590506104e6816104c2565b92915050565b5f6104fe6104f98461048e565b6102c9565b90508083825260208201905060208402830185811115610521576105206103ba565b5b835b8181101561054a578061053688826104d8565b845260208401935050602081019050610523565b5050509392505050565b5f82601f83011261056857610567610253565b5b81356105788482602086016104ec565b91505092915050565b5f5f5f5f5f5f60c0878903121561059b5761059a61024b565b5b5f87013567ffffffffffffffff8111156105b8576105b761024f565b5b6105c489828a01610362565b965050602087013567ffffffffffffffff8111156105e5576105e461024f565b5b6105f189828a01610362565b955050604087013567ffffffffffffffff8111156106125761061161024f565b5b61061e89828a01610461565b945050606087013567ffffffffffffffff81111561063f5761063e61024f565b5b61064b89828a01610554565b935050608061065c89828a016104d8565b92505060a061066d89828a016104d8565b9150509295509295509295565b610683816103be565b82525050565b5f60208201905061069c5f83018461067a565b92915050565b5f81519050919050565b5f82825260208201905092915050565b8281835e5f83830152505050565b5f6106d4826106a2565b6106de81856106ac565b93506106ee8185602086016106bc565b6106f78161025b565b840191505092915050565b5f81519050919050565b5f82825260208201905092915050565b5f819050602082019050919050565b610734816103be565b82525050565b5f610745838361072b565b60208301905092915050565b5f602082019050919050565b5f61076782610702565b610771818561070c565b935061077c8361071c565b805f5b838110156107ac578151610793888261073a565b975061079e83610751565b92505060018101905061077f565b5085935050505092915050565b5f81519050919050565b5f82825260208201905092915050565b5f819050602082019050919050565b6107eb816104b9565b82525050565b5f6107fc83836107e2565b60208301905092915050565b5f602082019050919050565b5f61081e826107b9565b61082881856107c3565b9350610833836107d3565b805f5b8381101561086357815161084a88826107f1565b975061085583610808565b925050600181019050610836565b5085935050505092915050565b610879816104b9565b82525050565b5f60c0820190508181035f83015261089781896106ca565b905081810360208301526108ab81886106ca565b905081810360408301526108bf818761075d565b905081810360608301526108d38186610814565b90506108e26080830185610870565b6108ef60a0830184610870565b979650505050505050565b5f81519050610908816103cf565b92915050565b5f602082840312156109235761092261024b565b5b5f610930848285016108fa565b91505092915050565b5f6040820190508181035f83015261095181856106ca565b9050818103602083015261096581846106ca565b9050939250505056fea26469706673582212207122798e685c1c41c65955fa59bac2d6c54314a58294ce746773399f695d9ddd64736f6c634300081c0033","linkReferences":{}},"methodIdentifiers":{"createPool(string,string,address[],uint256[],uint256,uint256)":"cb3e65f8","factory()":"c45a0155"},"id":23}