{"abi":[{"type":"constructor","inputs":[{"name":"_factory","type":"address","internalType":"address"}],"stateMutability":"nonpayable"},{"type":"function","name":"createPool","inputs":[{"name":"tokenA","type":"address","internalType":"address"},{"name":"tokenB","type":"address","internalType":"address"}],"outputs":[{"name":"","type":"address","internalType":"address"}],"stateMutability":"nonpayable"},{"type":"function","name":"factory","inputs":[],"outputs":[{"name":"","type":"address","internalType":"contract IUniswapV2Factory"}],"stateMutability":"view"},{"type":"event","name":"PoolCreated","inputs":[{"name":"pair","type":"address","indexed":true,"internalType":"address"},{"name":"tokenA","type":"address","indexed":true,"internalType":"address"},{"name":"tokenB","type":"address","indexed":true,"internalType":"address"}],"anonymous":false}],"bytecode":{"object":"0x60a060405234801561000f575f5ffd5b506040516104a93803806104a9833981810160405281019061003191906100c9565b8073ffffffffffffffffffffffffffffffffffffffff1660808173ffffffffffffffffffffffffffffffffffffffff1681525050506100f4565b5f5ffd5b5f73ffffffffffffffffffffffffffffffffffffffff82169050919050565b5f6100988261006f565b9050919050565b6100a88161008e565b81146100b2575f5ffd5b50565b5f815190506100c38161009f565b92915050565b5f602082840312156100de576100dd61006b565b5b5f6100eb848285016100b5565b91505092915050565b6080516103986101115f395f81816088015260ae01526103985ff3fe608060405234801561000f575f5ffd5b5060043610610034575f3560e01c8063c45a015514610038578063e343361514610056575b5f5ffd5b610040610086565b60405161004d919061023e565b60405180910390f35b610070600480360381019061006b9190610296565b6100aa565b60405161007d91906102e3565b60405180910390f35b7f000000000000000000000000000000000000000000000000000000000000000081565b5f5f7f000000000000000000000000000000000000000000000000000000000000000073ffffffffffffffffffffffffffffffffffffffff1663c9c6539685856040518363ffffffff1660e01b81526004016101079291906102fc565b6020604051808303815f875af1158015610123573d5f5f3e3d5ffd5b505050506040513d601f19601f820116820180604052508101906101479190610337565b90508273ffffffffffffffffffffffffffffffffffffffff168473ffffffffffffffffffffffffffffffffffffffff168273ffffffffffffffffffffffffffffffffffffffff167f9c5d829b9b23efc461f9aeef91979ec04bb903feb3bee4f26d22114abfc7335b60405160405180910390a48091505092915050565b5f73ffffffffffffffffffffffffffffffffffffffff82169050919050565b5f819050919050565b5f6102066102016101fc846101c4565b6101e3565b6101c4565b9050919050565b5f610217826101ec565b9050919050565b5f6102288261020d565b9050919050565b6102388161021e565b82525050565b5f6020820190506102515f83018461022f565b92915050565b5f5ffd5b5f610265826101c4565b9050919050565b6102758161025b565b811461027f575f5ffd5b50565b5f813590506102908161026c565b92915050565b5f5f604083850312156102ac576102ab610257565b5b5f6102b985828601610282565b92505060206102ca85828601610282565b9150509250929050565b6102dd8161025b565b82525050565b5f6020820190506102f65f8301846102d4565b92915050565b5f60408201905061030f5f8301856102d4565b61031c60208301846102d4565b9392505050565b5f815190506103318161026c565b92915050565b5f6020828403121561034c5761034b610257565b5b5f61035984828501610323565b9150509291505056fea2646970667358221220c7b946da5fddd9ed4c4de38206797adcf0cc9ff9928f440cd07981f9718bbfa764736f6c634300081c0033","linkReferences":{}},"methodIdentifiers":{"createPool(address,address)":"e3433615","factory()":"c45a0155"},"id":22}