{"abi":[{"type":"constructor","inputs":[{"name":"_token0","type":"address","internalType":"address"},{"name":"_token1","type":"address","internalType":"address"}],"stateMutability":"nonpayable"},{"type":"function","name":"addLiquidity","inputs":[{"name":"amount0","type":"uint256","internalType":"uint256"},{"name":"amount1","type":"uint256","internalType":"uint256"}],"outputs":[],"stateMutability":"nonpayable"},{"type":"function","name":"getReserves","inputs":[],"outputs":[{"name":"","type":"uint112","internalType":"uint112"},{"name":"","type":"uint112","internalType":"uint112"}],"stateMutability":"view"},{"type":"function","name":"swap","inputs":[{"name":"tokenIn","type":"address","internalType":"address"},{"name":"amountIn","type":"uint256","internalType":"uint256"}],"outputs":[],"stateMutability":"nonpayable"},{"type":"function","name":"token0","inputs":[],"outputs":[{"name":"","type":"address","internalType":"contract IERC20"}],"stateMutability":"view"},{"type":"function","name":"token1","inputs":[],"outputs":[{"name":"","type":"address","internalType":"contract IERC20"}],"stateMutability":"view"},{"type":"event","name":"LiquidityAdded","inputs":[{"name":"provider","type":"address","indexed":true,"internalType":"address"},{"name":"amount0","type":"uint256","indexed":false,"internalType":"uint256"},{"name":"amount1","type":"uint256","indexed":false,"internalType":"uint256"},{"name":"newReserve0","type":"uint112","indexed":false,"internalType":"uint112"},{"name":"newReserve1","type":"uint112","indexed":false,"internalType":"uint112"}],"anonymous":false},{"type":"event","name":"Swapped","inputs":[{"name":"buyer","type":"address","indexed":true,"internalType":"address"},{"name":"tokenIn","type":"address","indexed":true,"internalType":"address"},{"name":"amountIn","type":"uint256","indexed":false,"internalType":"uint256"},{"name":"tokenOut","type":"address","indexed":true,"internalType":"address"},{"name":"amountOut","type":"uint256","indexed":false,"internalType":"uint256"}],"anonymous":false}],"bytecode":{"object":"0x608060405234801561000f575f5ffd5b506040516111f53803806111f583398181016040528101906100319190610183565b8073ffffffffffffffffffffffffffffffffffffffff168273ffffffffffffffffffffffffffffffffffffffff160361009f576040517f08c379a00000000000000000000000000000000000000000000000000000000081526004016100969061021b565b60405180910390fd5b815f5f6101000a81548173ffffffffffffffffffffffffffffffffffffffff021916908373ffffffffffffffffffffffffffffffffffffffff1602179055508060015f6101000a81548173ffffffffffffffffffffffffffffffffffffffff021916908373ffffffffffffffffffffffffffffffffffffffff1602179055505050610239565b5f5ffd5b5f73ffffffffffffffffffffffffffffffffffffffff82169050919050565b5f61015282610129565b9050919050565b61016281610148565b811461016c575f5ffd5b50565b5f8151905061017d81610159565b92915050565b5f5f6040838503121561019957610198610125565b5b5f6101a68582860161016f565b92505060206101b78582860161016f565b9150509250929050565b5f82825260208201905092915050565b7f546f6b656e73206d7573742064696666657200000000000000000000000000005f82015250565b5f6102056012836101c1565b9150610210826101d1565b602082019050919050565b5f6020820190508181035f830152610232816101f9565b9050919050565b610faf806102465f395ff3fe608060405234801561000f575f5ffd5b5060043610610055575f3560e01c80630902f1ac146100595780630dfe1681146100785780639cd441da14610096578063d004f0f7146100b2578063d21220a7146100ce575b5f5ffd5b6100616100ec565b60405161006f929190610a3b565b60405180910390f35b61008061012f565b60405161008d9190610adc565b60405180910390f35b6100b060048036038101906100ab9190610b2c565b610153565b005b6100cc60048036038101906100c79190610ba5565b6103d8565b005b6100d66109ee565b6040516100e39190610adc565b60405180910390f35b5f5f60025f9054906101000a90046dffffffffffffffffffffffffffff166002600e9054906101000a90046dffffffffffffffffffffffffffff16915091509091565b5f5f9054906101000a900473ffffffffffffffffffffffffffffffffffffffff1681565b5f5f9054906101000a900473ffffffffffffffffffffffffffffffffffffffff1673ffffffffffffffffffffffffffffffffffffffff166323b872dd3330856040518463ffffffff1660e01b81526004016101b093929190610c01565b6020604051808303815f875af11580156101cc573d5f5f3e3d5ffd5b505050506040513d601f19601f820116820180604052508101906101f09190610c6b565b5060015f9054906101000a900473ffffffffffffffffffffffffffffffffffffffff1673ffffffffffffffffffffffffffffffffffffffff166323b872dd3330846040518463ffffffff1660e01b815260040161024f93929190610c01565b6020604051808303815f875af115801561026b573d5f5f3e3d5ffd5b505050506040513d601f19601f8201168201806040525081019061028f9190610c6b565b508160025f8282829054906101000a90046dffffffffffffffffffffffffffff166102ba9190610cc3565b92506101000a8154816dffffffffffffffffffffffffffff02191690836dffffffffffffffffffffffffffff160217905550806002600e8282829054906101000a90046dffffffffffffffffffffffffffff166103179190610cc3565b92506101000a8154816dffffffffffffffffffffffffffff02191690836dffffffffffffffffffffffffffff1602179055503373ffffffffffffffffffffffffffffffffffffffff167fe63a52accf003073a541a89f745ca54b20129c76a7f875a3f98f987cb5a91f4a838360025f9054906101000a90046dffffffffffffffffffffffffffff166002600e9054906101000a90046dffffffffffffffffffffffffffff166040516103cc9493929190610d04565b60405180910390a25050565b5f5f9054906101000a900473ffffffffffffffffffffffffffffffffffffffff1673ffffffffffffffffffffffffffffffffffffffff168273ffffffffffffffffffffffffffffffffffffffff16148061047e575060015f9054906101000a900473ffffffffffffffffffffffffffffffffffffffff1673ffffffffffffffffffffffffffffffffffffffff168273ffffffffffffffffffffffffffffffffffffffff16145b6104bd576040517f08c379a00000000000000000000000000000000000000000000000000000000081526004016104b490610da1565b60405180910390fd5b5f5f5f5f5f5f9054906101000a900473ffffffffffffffffffffffffffffffffffffffff1673ffffffffffffffffffffffffffffffffffffffff168673ffffffffffffffffffffffffffffffffffffffff16146105955760015f9054906101000a900473ffffffffffffffffffffffffffffffffffffffff165f5f9054906101000a900473ffffffffffffffffffffffffffffffffffffffff166002600e9054906101000a90046dffffffffffffffffffffffffffff1660025f9054906101000a90046dffffffffffffffffffffffffffff16610612565b5f5f9054906101000a900473ffffffffffffffffffffffffffffffffffffffff1660015f9054906101000a900473ffffffffffffffffffffffffffffffffffffffff1660025f9054906101000a90046dffffffffffffffffffffffffffff166002600e9054906101000a90046dffffffffffffffffffffffffffff165b93509350935093505f816dffffffffffffffffffffffffffff16836dffffffffffffffffffffffffffff166106479190610dbf565b90505f86846dffffffffffffffffffffffffffff166106669190610e00565b90505f81836106759190610e60565b846dffffffffffffffffffffffffffff166106909190610e90565b90505f81116106d4576040517f08c379a00000000000000000000000000000000000000000000000000000000081526004016106cb90610f0d565b60405180910390fd5b8673ffffffffffffffffffffffffffffffffffffffff166323b872dd33308b6040518463ffffffff1660e01b815260040161071193929190610c01565b6020604051808303815f875af115801561072d573d5f5f3e3d5ffd5b505050506040513d601f19601f820116820180604052508101906107519190610c6b565b508573ffffffffffffffffffffffffffffffffffffffff1663a9059cbb33836040518363ffffffff1660e01b815260040161078d929190610f2b565b6020604051808303815f875af11580156107a9573d5f5f3e3d5ffd5b505050506040513d601f19601f820116820180604052508101906107cd9190610c6b565b505f5f9054906101000a900473ffffffffffffffffffffffffffffffffffffffff1673ffffffffffffffffffffffffffffffffffffffff168973ffffffffffffffffffffffffffffffffffffffff16036108c55787856dffffffffffffffffffffffffffff1661083d9190610e00565b60025f6101000a8154816dffffffffffffffffffffffffffff02191690836dffffffffffffffffffffffffffff16021790555080846dffffffffffffffffffffffffffff1661088c9190610e90565b6002600e6101000a8154816dffffffffffffffffffffffffffff02191690836dffffffffffffffffffffffffffff160217905550610965565b87856dffffffffffffffffffffffffffff166108e19190610e00565b6002600e6101000a8154816dffffffffffffffffffffffffffff02191690836dffffffffffffffffffffffffffff16021790555080846dffffffffffffffffffffffffffff166109319190610e90565b60025f6101000a8154816dffffffffffffffffffffffffffff02191690836dffffffffffffffffffffffffffff1602179055505b8573ffffffffffffffffffffffffffffffffffffffff168973ffffffffffffffffffffffffffffffffffffffff163373ffffffffffffffffffffffffffffffffffffffff167f692315744755ee6d80decaeb993d4b1bb95ff5db042cc47b32d5a7d858b019028b856040516109db929190610f52565b60405180910390a4505050505050505050565b60015f9054906101000a900473ffffffffffffffffffffffffffffffffffffffff1681565b5f6dffffffffffffffffffffffffffff82169050919050565b610a3581610a13565b82525050565b5f604082019050610a4e5f830185610a2c565b610a5b6020830184610a2c565b9392505050565b5f73ffffffffffffffffffffffffffffffffffffffff82169050919050565b5f819050919050565b5f610aa4610a9f610a9a84610a62565b610a81565b610a62565b9050919050565b5f610ab582610a8a565b9050919050565b5f610ac682610aab565b9050919050565b610ad681610abc565b82525050565b5f602082019050610aef5f830184610acd565b92915050565b5f5ffd5b5f819050919050565b610b0b81610af9565b8114610b15575f5ffd5b50565b5f81359050610b2681610b02565b92915050565b5f5f60408385031215610b4257610b41610af5565b5b5f610b4f85828601610b18565b9250506020610b6085828601610b18565b9150509250929050565b5f610b7482610a62565b9050919050565b610b8481610b6a565b8114610b8e575f5ffd5b50565b5f81359050610b9f81610b7b565b92915050565b5f5f60408385031215610bbb57610bba610af5565b5b5f610bc885828601610b91565b9250506020610bd985828601610b18565b9150509250929050565b610bec81610b6a565b82525050565b610bfb81610af9565b82525050565b5f606082019050610c145f830186610be3565b610c216020830185610be3565b610c2e6040830184610bf2565b949350505050565b5f8115159050919050565b610c4a81610c36565b8114610c54575f5ffd5b50565b5f81519050610c6581610c41565b92915050565b5f60208284031215610c8057610c7f610af5565b5b5f610c8d84828501610c57565b91505092915050565b7f4e487b71000000000000000000000000000000000000000000000000000000005f52601160045260245ffd5b5f610ccd82610a13565b9150610cd883610a13565b925082820190506dffffffffffffffffffffffffffff811115610cfe57610cfd610c96565b5b92915050565b5f608082019050610d175f830187610bf2565b610d246020830186610bf2565b610d316040830185610a2c565b610d3e6060830184610a2c565b95945050505050565b5f82825260208201905092915050565b7f496e76616c696420746f6b656e496e00000000000000000000000000000000005f82015250565b5f610d8b600f83610d47565b9150610d9682610d57565b602082019050919050565b5f6020820190508181035f830152610db881610d7f565b9050919050565b5f610dc982610af9565b9150610dd483610af9565b9250828202610de281610af9565b91508282048414831517610df957610df8610c96565b5b5092915050565b5f610e0a82610af9565b9150610e1583610af9565b9250828201905080821115610e2d57610e2c610c96565b5b92915050565b7f4e487b71000000000000000000000000000000000000000000000000000000005f52601260045260245ffd5b5f610e6a82610af9565b9150610e7583610af9565b925082610e8557610e84610e33565b5b828204905092915050565b5f610e9a82610af9565b9150610ea583610af9565b9250828203905081811115610ebd57610ebc610c96565b5b92915050565b7f496e73756666696369656e74206f7574707574000000000000000000000000005f82015250565b5f610ef7601383610d47565b9150610f0282610ec3565b602082019050919050565b5f6020820190508181035f830152610f2481610eeb565b9050919050565b5f604082019050610f3e5f830185610be3565b610f4b6020830184610bf2565b9392505050565b5f604082019050610f655f830185610bf2565b610f726020830184610bf2565b939250505056fea26469706673582212205b4842e864f10e918b3806ad14a74512b60c30e74664921e2bcac3f10b91688264736f6c634300081c0033","linkReferences":{}},"methodIdentifiers":{"addLiquidity(uint256,uint256)":"9cd441da","getReserves()":"0902f1ac","swap(address,uint256)":"d004f0f7","token0()":"0dfe1681","token1()":"d21220a7"},"id":0}