{"abi":[{"type":"constructor","inputs":[{"name":"_tokens","type":"address[]","internalType":"address[]"}],"stateMutability":"nonpayable"},{"type":"function","name":"addLiquidity","inputs":[{"name":"amounts","type":"uint256[]","internalType":"uint256[]"}],"outputs":[],"stateMutability":"nonpayable"},{"type":"function","name":"getAllReserves","inputs":[],"outputs":[{"name":"","type":"uint256[]","internalType":"uint256[]"}],"stateMutability":"view"},{"type":"function","name":"reserves","inputs":[{"name":"","type":"address","internalType":"address"}],"outputs":[{"name":"","type":"uint256","internalType":"uint256"}],"stateMutability":"view"},{"type":"function","name":"swap","inputs":[{"name":"tokenIn","type":"address","internalType":"address"},{"name":"amountIn","type":"uint256","internalType":"uint256"},{"name":"tokenOut","type":"address","internalType":"address"}],"outputs":[],"stateMutability":"nonpayable"},{"type":"function","name":"tokens","inputs":[{"name":"","type":"uint256","internalType":"uint256"}],"outputs":[{"name":"","type":"address","internalType":"address"}],"stateMutability":"view"},{"type":"event","name":"LiquidityAdded","inputs":[{"name":"provider","type":"address","indexed":true,"internalType":"address"},{"name":"tokens","type":"address[]","indexed":false,"internalType":"address[]"},{"name":"amounts","type":"uint256[]","indexed":false,"internalType":"uint256[]"}],"anonymous":false},{"type":"event","name":"Swapped","inputs":[{"name":"buyer","type":"address","indexed":true,"internalType":"address"},{"name":"tokenIn","type":"address","indexed":true,"internalType":"address"},{"name":"amountIn","type":"uint256","indexed":false,"internalType":"uint256"},{"name":"tokenOut","type":"address","indexed":true,"internalType":"address"},{"name":"amountOut","type":"uint256","indexed":false,"internalType":"uint256"}],"anonymous":false}],"bytecode":{"object":"0x608060405234801561000f575f5ffd5b506040516117263803806117268339818101604052810190610031919061038a565b600281511015610076576040517f08c379a000000000000000000000000000000000000000000000000000000000815260040161006d9061042b565b60405180910390fd5b805f908051906020019061008b92919061012d565b505f5f90505b5f80549050811015610126575f60015f5f84815481106100b4576100b3610449565b5b905f5260205f20015f9054906101000a900473ffffffffffffffffffffffffffffffffffffffff1673ffffffffffffffffffffffffffffffffffffffff1673ffffffffffffffffffffffffffffffffffffffff1681526020019081526020015f20819055508080600101915050610091565b5050610476565b828054828255905f5260205f209081019282156101a3579160200282015b828111156101a2578251825f6101000a81548173ffffffffffffffffffffffffffffffffffffffff021916908373ffffffffffffffffffffffffffffffffffffffff1602179055509160200191906001019061014b565b5b5090506101b091906101b4565b5090565b5b808211156101cb575f815f9055506001016101b5565b5090565b5f604051905090565b5f5ffd5b5f5ffd5b5f5ffd5b5f601f19601f8301169050919050565b7f4e487b71000000000000000000000000000000000000000000000000000000005f52604160045260245ffd5b61022a826101e4565b810181811067ffffffffffffffff82111715610249576102486101f4565b5b80604052505050565b5f61025b6101cf565b90506102678282610221565b919050565b5f67ffffffffffffffff821115610286576102856101f4565b5b602082029050602081019050919050565b5f5ffd5b5f73ffffffffffffffffffffffffffffffffffffffff82169050919050565b5f6102c48261029b565b9050919050565b6102d4816102ba565b81146102de575f5ffd5b50565b5f815190506102ef816102cb565b92915050565b5f6103076103028461026c565b610252565b9050808382526020820190506020840283018581111561032a57610329610297565b5b835b81811015610353578061033f88826102e1565b84526020840193505060208101905061032c565b5050509392505050565b5f82601f830112610371576103706101e0565b5b81516103818482602086016102f5565b91505092915050565b5f6020828403121561039f5761039e6101d8565b5b5f82015167ffffffffffffffff8111156103bc576103bb6101dc565b5b6103c88482850161035d565b91505092915050565b5f82825260208201905092915050565b7f4e656564203e3d3220746f6b656e7300000000000000000000000000000000005f82015250565b5f610415600f836103d1565b9150610420826103e1565b602082019050919050565b5f6020820190508181035f83015261044281610409565b9050919050565b7f4e487b71000000000000000000000000000000000000000000000000000000005f52603260045260245ffd5b6112a3806104835f395ff3fe608060405234801561000f575f5ffd5b5060043610610055575f3560e01c80634de59aa3146100595780634f64b2be146100755780636aa701bf146100a55780636d069a67146100c3578063d66bd524146100df575b5f5ffd5b610073600480360381019061006e91906109f3565b61010f565b005b61008f600480360381019061008a9190610a3a565b610335565b60405161009c9190610aa4565b60405180910390f35b6100ad61036f565b6040516100ba9190610b74565b60405180910390f35b6100dd60048036038101906100d89190610bbe565b61047e565b005b6100f960048036038101906100f49190610c0e565b61084a565b6040516101069190610c48565b60405180910390f35b5f80549050815114610156576040517f08c379a000000000000000000000000000000000000000000000000000000000815260040161014d90610cbb565b60405180910390fd5b5f5f90505b5f805490508110156102e1575f5f828154811061017b5761017a610cd9565b5b905f5260205f20015f9054906101000a900473ffffffffffffffffffffffffffffffffffffffff1690505f8383815181106101b9576101b8610cd9565b5b602002602001015190508173ffffffffffffffffffffffffffffffffffffffff166323b872dd3330846040518463ffffffff1660e01b815260040161020093929190610d06565b6020604051808303815f875af115801561021c573d5f5f3e3d5ffd5b505050506040513d601f19601f820116820180604052508101906102409190610d70565b61027f576040517f08c379a000000000000000000000000000000000000000000000000000000000815260040161027690610de5565b60405180910390fd5b8060015f8473ffffffffffffffffffffffffffffffffffffffff1673ffffffffffffffffffffffffffffffffffffffff1681526020019081526020015f205f8282546102cb9190610e30565b925050819055505050808060010191505061015b565b503373ffffffffffffffffffffffffffffffffffffffff167fac353be5e91ce7aea4b3c327a183f5c5f3867d7f4dfbbb8b5980b4e603bf6d975f8360405161032a929190610f79565b60405180910390a250565b5f8181548110610343575f80fd5b905f5260205f20015f915054906101000a900473ffffffffffffffffffffffffffffffffffffffff1681565b60605f5f8054905067ffffffffffffffff8111156103905761038f610884565b5b6040519080825280602002602001820160405280156103be5781602001602082028036833780820191505090505b5090505f5f90505b5f805490508110156104765760015f5f83815481106103e8576103e7610cd9565b5b905f5260205f20015f9054906101000a900473ffffffffffffffffffffffffffffffffffffffff1673ffffffffffffffffffffffffffffffffffffffff1673ffffffffffffffffffffffffffffffffffffffff1681526020019081526020015f205482828151811061045d5761045c610cd9565b5b60200260200101818152505080806001019150506103c6565b508091505090565b5f60015f8573ffffffffffffffffffffffffffffffffffffffff1673ffffffffffffffffffffffffffffffffffffffff1681526020019081526020015f205490505f60015f8473ffffffffffffffffffffffffffffffffffffffff1673ffffffffffffffffffffffffffffffffffffffff1681526020019081526020015f205490505f8211801561050e57505f81115b61054d576040517f08c379a000000000000000000000000000000000000000000000000000000000815260040161054490610ff8565b60405180910390fd5b8473ffffffffffffffffffffffffffffffffffffffff166323b872dd3330876040518463ffffffff1660e01b815260040161058a93929190610d06565b6020604051808303815f875af11580156105a6573d5f5f3e3d5ffd5b505050506040513d601f19601f820116820180604052508101906105ca9190610d70565b610609576040517f08c379a000000000000000000000000000000000000000000000000000000000815260040161060090611060565b60405180910390fd5b5f84836106169190610e30565b8286610622919061107e565b61062c91906110ec565b90505f8111610670576040517f08c379a000000000000000000000000000000000000000000000000000000000815260040161066790611166565b60405180910390fd5b8373ffffffffffffffffffffffffffffffffffffffff1663a9059cbb33836040518363ffffffff1660e01b81526004016106ab929190611184565b6020604051808303815f875af11580156106c7573d5f5f3e3d5ffd5b505050506040513d601f19601f820116820180604052508101906106eb9190610d70565b61072a576040517f08c379a0000000000000000000000000000000000000000000000000000000008152600401610721906111f5565b60405180910390fd5b84836107369190610e30565b60015f8873ffffffffffffffffffffffffffffffffffffffff1673ffffffffffffffffffffffffffffffffffffffff1681526020019081526020015f208190555080826107839190611213565b60015f8673ffffffffffffffffffffffffffffffffffffffff1673ffffffffffffffffffffffffffffffffffffffff1681526020019081526020015f20819055508373ffffffffffffffffffffffffffffffffffffffff168673ffffffffffffffffffffffffffffffffffffffff163373ffffffffffffffffffffffffffffffffffffffff167f692315744755ee6d80decaeb993d4b1bb95ff5db042cc47b32d5a7d858b01902888560405161083a929190611246565b60405180910390a4505050505050565b6001602052805f5260405f205f915090505481565b5f604051905090565b5f5ffd5b5f5ffd5b5f5ffd5b5f601f19601f8301169050919050565b7f4e487b71000000000000000000000000000000000000000000000000000000005f52604160045260245ffd5b6108ba82610874565b810181811067ffffffffffffffff821117156108d9576108d8610884565b5b80604052505050565b5f6108eb61085f565b90506108f782826108b1565b919050565b5f67ffffffffffffffff82111561091657610915610884565b5b602082029050602081019050919050565b5f5ffd5b5f819050919050565b61093d8161092b565b8114610947575f5ffd5b50565b5f8135905061095881610934565b92915050565b5f61097061096b846108fc565b6108e2565b9050808382526020820190506020840283018581111561099357610992610927565b5b835b818110156109bc57806109a8888261094a565b845260208401935050602081019050610995565b5050509392505050565b5f82601f8301126109da576109d9610870565b5b81356109ea84826020860161095e565b91505092915050565b5f60208284031215610a0857610a07610868565b5b5f82013567ffffffffffffffff811115610a2557610a2461086c565b5b610a31848285016109c6565b91505092915050565b5f60208284031215610a4f57610a4e610868565b5b5f610a5c8482850161094a565b91505092915050565b5f73ffffffffffffffffffffffffffffffffffffffff82169050919050565b5f610a8e82610a65565b9050919050565b610a9e81610a84565b82525050565b5f602082019050610ab75f830184610a95565b92915050565b5f81519050919050565b5f82825260208201905092915050565b5f819050602082019050919050565b610aef8161092b565b82525050565b5f610b008383610ae6565b60208301905092915050565b5f602082019050919050565b5f610b2282610abd565b610b2c8185610ac7565b9350610b3783610ad7565b805f5b83811015610b67578151610b4e8882610af5565b9750610b5983610b0c565b925050600181019050610b3a565b5085935050505092915050565b5f6020820190508181035f830152610b8c8184610b18565b905092915050565b610b9d81610a84565b8114610ba7575f5ffd5b50565b5f81359050610bb881610b94565b92915050565b5f5f5f60608486031215610bd557610bd4610868565b5b5f610be286828701610baa565b9350506020610bf38682870161094a565b9250506040610c0486828701610baa565b9150509250925092565b5f60208284031215610c2357610c22610868565b5b5f610c3084828501610baa565b91505092915050565b610c428161092b565b82525050565b5f602082019050610c5b5f830184610c39565b92915050565b5f82825260208201905092915050565b7f426164206172726179206c656e677468000000000000000000000000000000005f82015250565b5f610ca5601083610c61565b9150610cb082610c71565b602082019050919050565b5f6020820190508181035f830152610cd281610c99565b9050919050565b7f4e487b71000000000000000000000000000000000000000000000000000000005f52603260045260245ffd5b5f606082019050610d195f830186610a95565b610d266020830185610a95565b610d336040830184610c39565b949350505050565b5f8115159050919050565b610d4f81610d3b565b8114610d59575f5ffd5b50565b5f81519050610d6a81610d46565b92915050565b5f60208284031215610d8557610d84610868565b5b5f610d9284828501610d5c565b91505092915050565b7f54460000000000000000000000000000000000000000000000000000000000005f82015250565b5f610dcf600283610c61565b9150610dda82610d9b565b602082019050919050565b5f6020820190508181035f830152610dfc81610dc3565b9050919050565b7f4e487b71000000000000000000000000000000000000000000000000000000005f52601160045260245ffd5b5f610e3a8261092b565b9150610e458361092b565b9250828201905080821115610e5d57610e5c610e03565b5b92915050565b5f81549050919050565b5f82825260208201905092915050565b5f819050815f5260205f209050919050565b610e9881610a84565b82525050565b5f610ea98383610e8f565b60208301905092915050565b5f815f1c9050919050565b5f73ffffffffffffffffffffffffffffffffffffffff82169050919050565b5f610ef1610eec83610eb5565b610ec0565b9050919050565b5f610f038254610edf565b9050919050565b5f600182019050919050565b5f610f2082610e63565b610f2a8185610e6d565b9350610f3583610e7d565b805f5b83811015610f6c57610f4982610ef8565b610f538882610e9e565b9750610f5e83610f0a565b925050600181019050610f38565b5085935050505092915050565b5f6040820190508181035f830152610f918185610f16565b90508181036020830152610fa58184610b18565b90509392505050565b7f496e76616c696420746f6b656e730000000000000000000000000000000000005f82015250565b5f610fe2600e83610c61565b9150610fed82610fae565b602082019050919050565b5f6020820190508181035f83015261100f81610fd6565b9050919050565b7f544620696e0000000000000000000000000000000000000000000000000000005f82015250565b5f61104a600583610c61565b915061105582611016565b602082019050919050565b5f6020820190508181035f8301526110778161103e565b9050919050565b5f6110888261092b565b91506110938361092b565b92508282026110a18161092b565b915082820484148315176110b8576110b7610e03565b5b5092915050565b7f4e487b71000000000000000000000000000000000000000000000000000000005f52601260045260245ffd5b5f6110f68261092b565b91506111018361092b565b925082611111576111106110bf565b5b828204905092915050565b7f496e73756666696369656e74206f7574707574000000000000000000000000005f82015250565b5f611150601383610c61565b915061115b8261111c565b602082019050919050565b5f6020820190508181035f83015261117d81611144565b9050919050565b5f6040820190506111975f830185610a95565b6111a46020830184610c39565b9392505050565b7f5446206f757400000000000000000000000000000000000000000000000000005f82015250565b5f6111df600683610c61565b91506111ea826111ab565b602082019050919050565b5f6020820190508181035f83015261120c816111d3565b9050919050565b5f61121d8261092b565b91506112288361092b565b92508282039050818111156112405761123f610e03565b5b92915050565b5f6040820190506112595f830185610c39565b6112666020830184610c39565b939250505056fea2646970667358221220267aa11ec7879f6cee55ce0a874657370979c04406cd1ad59bbf9715524a57f764736f6c634300081c0033","linkReferences":{}},"methodIdentifiers":{"addLiquidity(uint256[])":"4de59aa3","getAllReserves()":"6aa701bf","reserves(address)":"d66bd524","swap(address,uint256,address)":"6d069a67","tokens(uint256)":"4f64b2be"},"id":23}