{"abi":[{"type":"constructor","inputs":[{"name":"_tokens","type":"address[]","internalType":"address[]"},{"name":"initialAmounts","type":"uint256[]","internalType":"uint256[]"}],"stateMutability":"nonpayable"},{"type":"function","name":"addLiquidity","inputs":[{"name":"amounts","type":"uint256[]","internalType":"uint256[]"}],"outputs":[],"stateMutability":"nonpayable"},{"type":"function","name":"getAllReserves","inputs":[],"outputs":[{"name":"","type":"uint256[]","internalType":"uint256[]"}],"stateMutability":"view"},{"type":"function","name":"reserves","inputs":[{"name":"","type":"address","internalType":"address"}],"outputs":[{"name":"","type":"uint256","internalType":"uint256"}],"stateMutability":"view"},{"type":"function","name":"swap","inputs":[{"name":"tokenIn","type":"address","internalType":"address"},{"name":"amountIn","type":"uint256","internalType":"uint256"},{"name":"tokenOut","type":"address","internalType":"address"}],"outputs":[],"stateMutability":"nonpayable"},{"type":"function","name":"tokens","inputs":[{"name":"","type":"uint256","internalType":"uint256"}],"outputs":[{"name":"","type":"address","internalType":"address"}],"stateMutability":"view"},{"type":"event","name":"LiquidityAdded","inputs":[{"name":"provider","type":"address","indexed":true,"internalType":"address"},{"name":"tokens","type":"address[]","indexed":false,"internalType":"address[]"},{"name":"amounts","type":"uint256[]","indexed":false,"internalType":"uint256[]"}],"anonymous":false},{"type":"event","name":"Swapped","inputs":[{"name":"buyer","type":"address","indexed":true,"internalType":"address"},{"name":"tokenIn","type":"address","indexed":true,"internalType":"address"},{"name":"amountIn","type":"uint256","indexed":false,"internalType":"uint256"},{"name":"tokenOut","type":"address","indexed":true,"internalType":"address"},{"name":"amountOut","type":"uint256","indexed":false,"internalType":"uint256"}],"anonymous":false}],"bytecode":{"object":"0x608060405234801561000f575f5ffd5b50604051611c3c380380611c3c833981810160405281019061003191906105b4565b600282511015610076576040517f08c379a000000000000000000000000000000000000000000000000000000000815260040161006d90610684565b60405180910390fd5b80518251146100ba576040517f08c379a00000000000000000000000000000000000000000000000000000000081526004016100b1906106ec565b60405180910390fd5b815f90805190602001906100cf929190610264565b505f5f90505b5f8054905081101561020c575f5f82815481106100f5576100f461070a565b5b905f5260205f20015f9054906101000a900473ffffffffffffffffffffffffffffffffffffffff1690505f8383815181106101335761013261070a565b5b602002602001015190508173ffffffffffffffffffffffffffffffffffffffff166323b872dd3330846040518463ffffffff1660e01b815260040161017a93929190610755565b6020604051808303815f875af1158015610196573d5f5f3e3d5ffd5b505050506040513d601f19601f820116820180604052508101906101ba91906107bf565b508060015f8473ffffffffffffffffffffffffffffffffffffffff1673ffffffffffffffffffffffffffffffffffffffff1681526020019081526020015f2081905550505080806001019150506100d5565b503373ffffffffffffffffffffffffffffffffffffffff167fac353be5e91ce7aea4b3c327a183f5c5f3867d7f4dfbbb8b5980b4e603bf6d975f836040516102559291906109b7565b60405180910390a250506109ec565b828054828255905f5260205f209081019282156102da579160200282015b828111156102d9578251825f6101000a81548173ffffffffffffffffffffffffffffffffffffffff021916908373ffffffffffffffffffffffffffffffffffffffff16021790555091602001919060010190610282565b5b5090506102e791906102eb565b5090565b5b80821115610302575f815f9055506001016102ec565b5090565b5f604051905090565b5f5ffd5b5f5ffd5b5f5ffd5b5f601f19601f8301169050919050565b7f4e487b71000000000000000000000000000000000000000000000000000000005f52604160045260245ffd5b6103618261031b565b810181811067ffffffffffffffff821117156103805761037f61032b565b5b80604052505050565b5f610392610306565b905061039e8282610358565b919050565b5f67ffffffffffffffff8211156103bd576103bc61032b565b5b602082029050602081019050919050565b5f5ffd5b5f73ffffffffffffffffffffffffffffffffffffffff82169050919050565b5f6103fb826103d2565b9050919050565b61040b816103f1565b8114610415575f5ffd5b50565b5f8151905061042681610402565b92915050565b5f61043e610439846103a3565b610389565b90508083825260208201905060208402830185811115610461576104606103ce565b5b835b8181101561048a57806104768882610418565b845260208401935050602081019050610463565b5050509392505050565b5f82601f8301126104a8576104a7610317565b5b81516104b884826020860161042c565b91505092915050565b5f67ffffffffffffffff8211156104db576104da61032b565b5b602082029050602081019050919050565b5f819050919050565b6104fe816104ec565b8114610508575f5ffd5b50565b5f81519050610519816104f5565b92915050565b5f61053161052c846104c1565b610389565b90508083825260208201905060208402830185811115610554576105536103ce565b5b835b8181101561057d5780610569888261050b565b845260208401935050602081019050610556565b5050509392505050565b5f82601f83011261059b5761059a610317565b5b81516105ab84826020860161051f565b91505092915050565b5f5f604083850312156105ca576105c961030f565b5b5f83015167ffffffffffffffff8111156105e7576105e6610313565b5b6105f385828601610494565b925050602083015167ffffffffffffffff81111561061457610613610313565b5b61062085828601610587565b9150509250929050565b5f82825260208201905092915050565b7f4e656564203e3d3220746f6b656e7300000000000000000000000000000000005f82015250565b5f61066e600f8361062a565b91506106798261063a565b602082019050919050565b5f6020820190508181035f83015261069b81610662565b9050919050565b7f546f6b656e7320213d20616d6f756e74730000000000000000000000000000005f82015250565b5f6106d660118361062a565b91506106e1826106a2565b602082019050919050565b5f6020820190508181035f830152610703816106ca565b9050919050565b7f4e487b71000000000000000000000000000000000000000000000000000000005f52603260045260245ffd5b610740816103f1565b82525050565b61074f816104ec565b82525050565b5f6060820190506107685f830186610737565b6107756020830185610737565b6107826040830184610746565b949350505050565b5f8115159050919050565b61079e8161078a565b81146107a8575f5ffd5b50565b5f815190506107b981610795565b92915050565b5f602082840312156107d4576107d361030f565b5b5f6107e1848285016107ab565b91505092915050565b5f81549050919050565b5f82825260208201905092915050565b5f819050815f5260205f209050919050565b61081f816103f1565b82525050565b5f6108308383610816565b60208301905092915050565b5f815f1c9050919050565b5f73ffffffffffffffffffffffffffffffffffffffff82169050919050565b5f6108786108738361083c565b610847565b9050919050565b5f61088a8254610866565b9050919050565b5f600182019050919050565b5f6108a7826107ea565b6108b181856107f4565b93506108bc83610804565b805f5b838110156108f3576108d08261087f565b6108da8882610825565b97506108e583610891565b9250506001810190506108bf565b5085935050505092915050565b5f81519050919050565b5f82825260208201905092915050565b5f819050602082019050919050565b610932816104ec565b82525050565b5f6109438383610929565b60208301905092915050565b5f602082019050919050565b5f61096582610900565b61096f818561090a565b935061097a8361091a565b805f5b838110156109aa5781516109918882610938565b975061099c8361094f565b92505060018101905061097d565b5085935050505092915050565b5f6040820190508181035f8301526109cf818561089d565b905081810360208301526109e3818461095b565b90509392505050565b611243806109f95f395ff3fe608060405234801561000f575f5ffd5b5060043610610055575f3560e01c80634de59aa3146100595780634f64b2be146100755780636aa701bf146100a55780636d069a67146100c3578063d66bd524146100df575b5f5ffd5b610073600480360381019061006e9190610acb565b61010f565b005b61008f600480360381019061008a9190610b12565b61030c565b60405161009c9190610b7c565b60405180910390f35b6100ad610346565b6040516100ba9190610c4c565b60405180910390f35b6100dd60048036038101906100d89190610c96565b610455565b005b6100f960048036038101906100f49190610ce6565b610922565b6040516101069190610d20565b60405180910390f35b5f80549050815114610156576040517f08c379a000000000000000000000000000000000000000000000000000000000815260040161014d90610d93565b60405180910390fd5b5f5f90505b5f805490508110156102b8575f5f828154811061017b5761017a610db1565b5b905f5260205f20015f9054906101000a900473ffffffffffffffffffffffffffffffffffffffff1690508073ffffffffffffffffffffffffffffffffffffffff166323b872dd33308686815181106101d6576101d5610db1565b5b60200260200101516040518463ffffffff1660e01b81526004016101fc93929190610dde565b6020604051808303815f875af1158015610218573d5f5f3e3d5ffd5b505050506040513d601f19601f8201168201806040525081019061023c9190610e48565b508282815181106102505761024f610db1565b5b602002602001015160015f8373ffffffffffffffffffffffffffffffffffffffff1673ffffffffffffffffffffffffffffffffffffffff1681526020019081526020015f205f8282546102a39190610ea0565b9250508190555050808060010191505061015b565b503373ffffffffffffffffffffffffffffffffffffffff167fac353be5e91ce7aea4b3c327a183f5c5f3867d7f4dfbbb8b5980b4e603bf6d975f83604051610301929190610fe9565b60405180910390a250565b5f818154811061031a575f80fd5b905f5260205f20015f915054906101000a900473ffffffffffffffffffffffffffffffffffffffff1681565b60605f5f8054905067ffffffffffffffff8111156103675761036661095c565b5b6040519080825280602002602001820160405280156103955781602001602082028036833780820191505090505b5090505f5f90505b5f8054905081101561044d5760015f5f83815481106103bf576103be610db1565b5b905f5260205f20015f9054906101000a900473ffffffffffffffffffffffffffffffffffffffff1673ffffffffffffffffffffffffffffffffffffffff1673ffffffffffffffffffffffffffffffffffffffff1681526020019081526020015f205482828151811061043457610433610db1565b5b602002602001018181525050808060010191505061039d565b508091505090565b5f60015f8573ffffffffffffffffffffffffffffffffffffffff1673ffffffffffffffffffffffffffffffffffffffff1681526020019081526020015f20541180156104dd57505f60015f8373ffffffffffffffffffffffffffffffffffffffff1673ffffffffffffffffffffffffffffffffffffffff1681526020019081526020015f2054115b61051c576040517f08c379a000000000000000000000000000000000000000000000000000000000815260040161051390611068565b60405180910390fd5b5f600190505f5f90505b5f805490508110156105c45760015f5f838154811061054857610547610db1565b5b905f5260205f20015f9054906101000a900473ffffffffffffffffffffffffffffffffffffffff1673ffffffffffffffffffffffffffffffffffffffff1673ffffffffffffffffffffffffffffffffffffffff1681526020019081526020015f2054826105b59190611086565b91508080600101915050610526565b505f8360015f8773ffffffffffffffffffffffffffffffffffffffff1673ffffffffffffffffffffffffffffffffffffffff1681526020019081526020015f205461060f9190610ea0565b90505f60015f8573ffffffffffffffffffffffffffffffffffffffff1673ffffffffffffffffffffffffffffffffffffffff1681526020019081526020015f20548361065b91906110f4565b90505f828261066a91906110f4565b90505f8160015f8873ffffffffffffffffffffffffffffffffffffffff1673ffffffffffffffffffffffffffffffffffffffff1681526020019081526020015f20546106b69190611124565b90505f81116106fa576040517f08c379a00000000000000000000000000000000000000000000000000000000081526004016106f1906111a1565b60405180910390fd5b8773ffffffffffffffffffffffffffffffffffffffff166323b872dd33308a6040518463ffffffff1660e01b815260040161073793929190610dde565b6020604051808303815f875af1158015610753573d5f5f3e3d5ffd5b505050506040513d601f19601f820116820180604052508101906107779190610e48565b508573ffffffffffffffffffffffffffffffffffffffff1663a9059cbb33836040518363ffffffff1660e01b81526004016107b39291906111bf565b6020604051808303815f875af11580156107cf573d5f5f3e3d5ffd5b505050506040513d601f19601f820116820180604052508101906107f39190610e48565b508660015f8a73ffffffffffffffffffffffffffffffffffffffff1673ffffffffffffffffffffffffffffffffffffffff1681526020019081526020015f205f8282546108409190610ea0565b925050819055508060015f8873ffffffffffffffffffffffffffffffffffffffff1673ffffffffffffffffffffffffffffffffffffffff1681526020019081526020015f205f8282546108939190611124565b925050819055508573ffffffffffffffffffffffffffffffffffffffff168873ffffffffffffffffffffffffffffffffffffffff163373ffffffffffffffffffffffffffffffffffffffff167f692315744755ee6d80decaeb993d4b1bb95ff5db042cc47b32d5a7d858b019028a856040516109109291906111e6565b60405180910390a45050505050505050565b6001602052805f5260405f205f915090505481565b5f604051905090565b5f5ffd5b5f5ffd5b5f5ffd5b5f601f19601f8301169050919050565b7f4e487b71000000000000000000000000000000000000000000000000000000005f52604160045260245ffd5b6109928261094c565b810181811067ffffffffffffffff821117156109b1576109b061095c565b5b80604052505050565b5f6109c3610937565b90506109cf8282610989565b919050565b5f67ffffffffffffffff8211156109ee576109ed61095c565b5b602082029050602081019050919050565b5f5ffd5b5f819050919050565b610a1581610a03565b8114610a1f575f5ffd5b50565b5f81359050610a3081610a0c565b92915050565b5f610a48610a43846109d4565b6109ba565b90508083825260208201905060208402830185811115610a6b57610a6a6109ff565b5b835b81811015610a945780610a808882610a22565b845260208401935050602081019050610a6d565b5050509392505050565b5f82601f830112610ab257610ab1610948565b5b8135610ac2848260208601610a36565b91505092915050565b5f60208284031215610ae057610adf610940565b5b5f82013567ffffffffffffffff811115610afd57610afc610944565b5b610b0984828501610a9e565b91505092915050565b5f60208284031215610b2757610b26610940565b5b5f610b3484828501610a22565b91505092915050565b5f73ffffffffffffffffffffffffffffffffffffffff82169050919050565b5f610b6682610b3d565b9050919050565b610b7681610b5c565b82525050565b5f602082019050610b8f5f830184610b6d565b92915050565b5f81519050919050565b5f82825260208201905092915050565b5f819050602082019050919050565b610bc781610a03565b82525050565b5f610bd88383610bbe565b60208301905092915050565b5f602082019050919050565b5f610bfa82610b95565b610c048185610b9f565b9350610c0f83610baf565b805f5b83811015610c3f578151610c268882610bcd565b9750610c3183610be4565b925050600181019050610c12565b5085935050505092915050565b5f6020820190508181035f830152610c648184610bf0565b905092915050565b610c7581610b5c565b8114610c7f575f5ffd5b50565b5f81359050610c9081610c6c565b92915050565b5f5f5f60608486031215610cad57610cac610940565b5b5f610cba86828701610c82565b9350506020610ccb86828701610a22565b9250506040610cdc86828701610c82565b9150509250925092565b5f60208284031215610cfb57610cfa610940565b5b5f610d0884828501610c82565b91505092915050565b610d1a81610a03565b82525050565b5f602082019050610d335f830184610d11565b92915050565b5f82825260208201905092915050565b7f426164206172726179206c656e677468000000000000000000000000000000005f82015250565b5f610d7d601083610d39565b9150610d8882610d49565b602082019050919050565b5f6020820190508181035f830152610daa81610d71565b9050919050565b7f4e487b71000000000000000000000000000000000000000000000000000000005f52603260045260245ffd5b5f606082019050610df15f830186610b6d565b610dfe6020830185610b6d565b610e0b6040830184610d11565b949350505050565b5f8115159050919050565b610e2781610e13565b8114610e31575f5ffd5b50565b5f81519050610e4281610e1e565b92915050565b5f60208284031215610e5d57610e5c610940565b5b5f610e6a84828501610e34565b91505092915050565b7f4e487b71000000000000000000000000000000000000000000000000000000005f52601160045260245ffd5b5f610eaa82610a03565b9150610eb583610a03565b9250828201905080821115610ecd57610ecc610e73565b5b92915050565b5f81549050919050565b5f82825260208201905092915050565b5f819050815f5260205f209050919050565b610f0881610b5c565b82525050565b5f610f198383610eff565b60208301905092915050565b5f815f1c9050919050565b5f73ffffffffffffffffffffffffffffffffffffffff82169050919050565b5f610f61610f5c83610f25565b610f30565b9050919050565b5f610f738254610f4f565b9050919050565b5f600182019050919050565b5f610f9082610ed3565b610f9a8185610edd565b9350610fa583610eed565b805f5b83811015610fdc57610fb982610f68565b610fc38882610f0e565b9750610fce83610f7a565b925050600181019050610fa8565b5085935050505092915050565b5f6040820190508181035f8301526110018185610f86565b905081810360208301526110158184610bf0565b90509392505050565b7f496e76616c696420746f6b656e730000000000000000000000000000000000005f82015250565b5f611052600e83610d39565b915061105d8261101e565b602082019050919050565b5f6020820190508181035f83015261107f81611046565b9050919050565b5f61109082610a03565b915061109b83610a03565b92508282026110a981610a03565b915082820484148315176110c0576110bf610e73565b5b5092915050565b7f4e487b71000000000000000000000000000000000000000000000000000000005f52601260045260245ffd5b5f6110fe82610a03565b915061110983610a03565b925082611119576111186110c7565b5b828204905092915050565b5f61112e82610a03565b915061113983610a03565b925082820390508181111561115157611150610e73565b5b92915050565b7f496e73756666696369656e74206f7574707574000000000000000000000000005f82015250565b5f61118b601383610d39565b915061119682611157565b602082019050919050565b5f6020820190508181035f8301526111b88161117f565b9050919050565b5f6040820190506111d25f830185610b6d565b6111df6020830184610d11565b9392505050565b5f6040820190506111f95f830185610d11565b6112066020830184610d11565b939250505056fea26469706673582212203f704d633f19a7092534b60fe88449d5c49da7e572a7818edf2c41f5101b484f64736f6c634300081c0033","linkReferences":{}},"methodIdentifiers":{"addLiquidity(uint256[])":"4de59aa3","getAllReserves()":"6aa701bf","reserves(address)":"d66bd524","swap(address,uint256,address)":"6d069a67","tokens(uint256)":"4f64b2be"},"id":1}